:1000000000800020BD0100007D16000041160000A8
:100010004116000041160000411600004116000084
:100020004116000041160000411600007D16000038
:100030007D160000411600007D16000031160000FC
:100040007D1600007D1600007D1600007D16000064
:100050007D1600007D1600007D1600007D16000054
:100060007D1600007D1600007D1600007D16000044
:100070007D1600007D1600007D1600007D16000034
:100080007D1600007D1600007D1600007D16000024
:100090007D1600007D1600007D1600007D16000014
:1000A0007D1600007D1600007D1600007D16000004
:1000B0007D1600007D1600007D1600007D160000F4
:1000C0007D1600007D1600007D1600007D160000E4
:1000D0007D1600007D1600007D1600007D160000D4
:1000E0007D1600007D1600007D1600007D160000C4
:1000F0007D160000AD1D00007D16000015250000D6
:100100007D160000992A00007D1600007D16000073
:100110007D1600007D1600007D1600007D16000093
:100120007D1600007D1600007D1600007D16000083
:100130007D1600007D1600007D1600007D16000073
:100140007D1600007D1600007D1600007D16000063
:100150007D1600007D1600007D1600007D16000053
:100160007D160000FD0800007D1600007D160000D1
:100170007D1600007D1600007D1600007D16000033
:100180007D1600007D1600007D1600007D16000023
:100190007D1600007D1600007D1600007D16000013
:1001A0007D1600007D1600007D1600007D16000003
:1001B0007D1600007D1600007D160000564B4CF2A7
:1001C000205210B51A804DF628121A8000BF00BFC9
:1001D00001F058FA514B4FF010621A60504A9A6081
:1001E000504ADA60504A136813F4807304D14F49BF
:1001F0000B604FF4A85313604D4B1A78110703D5C9
:100200001A7842F008021A704A4B4B492A221A7097
:100210004A4A4B4B8B4204D252F8040F43F8040B6A
:10022000F8E7484B484900228B4202D243F8042B9E
:10023000FAE74649464A002352F8230041F82300D2
:1002400001336F2BF8D1434B434A802103F8011B44
:100250009342FBD1414B3D4A1A60414B8A221A70AE
:10026000A3F5805324225A70A0221A709A7992071B
:10027000FCD59A79D406FCD43A4A937903F00C035E
:10028000082B384BF9D103221A7140225A719A79FE
:100290009006FCD5334A9179324B4906FBD5324A58
:1002A000324911600221516020221A709A7902F0BD
:1002B0000C020C2AFAD12E4B2E4A1A602E4B2F4AD2
:1002C0001A6000225A60072243F8042C2C4AC3F813
:1002D0000C2D62B600F0D0F9144B1B68DA0705D577
:1002E000284800F01BF9284B284A1A60284B1B7835
:1002F0005B0609D5244C254B22689A4204D121483B
:1003000000F00CF90023236002F06AFE01F0C0F94E
:1003100001F0AAF8FEE700BF0E200540308004403F
:10032000823F04000100002B10D0034014D0034092
:1003300002D0074000E007401490FF1F0C3D000072
:100340002087FF1F1490FF1F4C93FF1F0082FF1F89
:100350000000000000E400E05FE400E008ED00E0E1
:100360000050064000400640448004400000030165
:1003700004800440C010050014E000E0FF76010096
:1003800000002020DFC4D05A1CE00340A5C3945ACB
:1003900000F00740FFFFFFFFFFFFFFFFFFFFFFFF32
:1003A000FFFFFFFFFFFFFFFFFFFFFFFFFFFFFFFF5D
:1003B000FFFFFFFFFFFFFFFFFFFFFFFFFFFFFFFF4D
:1003C000FFFFFFFFFFFFFFFFFFFFFFFFFFFFFFFF3D
:1003D000FFFFFFFFFFFFFFFFFFFFFFFFFFFFFFFF2D
:1003E000FFFFFFFFFFFFFFFFFFFFFFFFFFFFFFFF1D
:1003F000FFFFFFFFFFFFFFFFFFFFFFFFFFFFFFFF0D
:10040000FFFFFFFFFFFFFFFFFFFFFFFFDEF9FFFF23
:1004100010B5054C237833B9044B13B10448AFF33E
:1004200000800123237010BD1490FF1F0000000006
:10043000103D0000084B10B51BB108490848AFF348
:1004400000800848036803B910BD074B002BFBD0A0
:10045000BDE81040184700BF000000001890FF1FC3
:10046000103D00001490FF1F0000000070B5012136
:100470000D2000F087F8134B18681349134C1A46E7
:10048000134E0B7813F0FF0F15D0237813F0030FE2
:1004900011D0136835685B1B182B0CD901210D2076
:1004A00000F04CF84FF4FA6000F0D0F800210D2075
:1004B00000F044F870BD13681B1AB3F57A7FE0D9D9
:1004C000ECE700BF3490FF1F1891FF1F2891FF1F1A
:1004D0004493FF1F38B50F4C0F4D00230A2221789B
:1004E000284600F085FF284600F072FF237801338C
:1004F000237001210D2000F021F84FF4FA7000F074
:10050000A5F800210D2000F019F84FF4FA7000F062
:100510009DF838BD3090FF1F2C91FF1F044B002227
:100520001A6004490A60044A106010221A60704779
:1005300014D0034004D0034000D0034021281ED82B
:100540000F4B53F8303093F8802212F0FF0F08D091
:1005500019B1012283F880207047012283F800211D
:100560007047074B03EBC000436821B11A6842F0A3
:1005700003021A6070471A6822F002021A6070477C
:10058000343A000021283AD81D4B03EBC0035B68C6
:10059000012919D0042925D0194A52F83020002009
:1005A00082F8800219B94FF480721A6070470229EC
:1005B00003D140F203121A60704703290CBF4FF4B5
:1005C000817200221A6070470D4A52F830200121D2
:1005D00082F880124FF4A2721A601A6822F0200288
:1005E0001A607047064A52F83020012182F88012C2
:1005F0004FF4A2721A601A6842F020021A60704723
:10060000343A000072B60D4B1B680D4A10680D4A53
:10061000126862B612F0806F02D0322B88BF0130B0
:10062000C3F5BB33FF33084AA2FB03234FF47A72AE
:1006300002FB00F000EB9310704700BF18E000E0F1
:100640003490FF1F04ED00E0ABAAAAAA38B5054616
:10065000FFF7D8FF044625B938BD013D0AD004F59F
:100660007A74FFF7CFFF001BB0F57A7FF5D200F068
:1006700033FFF6E738BD00BF10B5274B4FF400023B
:100680001A604FF080721A604FF000721A604FF0DB
:1006900080621A604FF000621A6000201F4B1860E1
:1006A0004BF6FF710433196028231D4A136008328A
:1006B0001360083213600832136008321360083286
:1006C000136008321360083213600922154C22604F
:1006D00004F5805404342060043421600434236021
:1006E00008342360143C226004F5FE2404342060A6
:1006F0000D4801600D490B6008310B600C4B1A600E
:1007000000F00CFF3220FFF7A1FF00F07DFC4FF45A
:10071000AF70FFF79BFF10BD08E100E004800340CD
:100720000C8003400080034008800B400C800B408D
:1007300000800B4010B40E4B1B7843F002040D4AAE
:1007400002EBC40250600C4A1278002A14BFC82081
:10075000882040EA0141074840F8341082F0010245
:1007600005490A7083F00103014A137010BC7047F9
:10077000A090FF1F0080FF1F1991FF1F431E032B36
:1007800011D872B60B4A52F8230080B110B44168F8
:1007900042F82310084931F813200488121B21F86D
:1007A000132062B601E00020704710BC704762B6AB
:1007B000704700BF9090FF1F3493FF1F013803283C
:1007C0000DD872B6074B53F820302BB10020013002
:1007D0005B68002BFBD100E0002062B67047002070
:1007E000704700BFE490FF1F38B572B61B49012364
:1007F0001B4C11F8012B12F0080F24D09A0054F86A
:1008000032506DB9164B03EBC201083048601549F0
:1008100043F83210144A1378013B137062B638BDA6
:1008200042F0010254F832506DB90D4B03EBC20196
:10083000083048600D4943F832100B4A1378013BE9
:10084000137062B638BD0133052BD2D162B60022D7
:10085000054B1A7000F03EFC38BD00BF6C3B000039
:100860000080FF1F880040000E91FF1FC80040005D
:10087000431E032B39D810B4400140F010001B4A2E
:10088000104472B61A4AD25C032A0BD8DFE802F091
:100890001B040207052217E00830022214E008308A
:1008A000042211E0134A52F823201AB9114A42F8DF
:1008B000231003E0104A52F8232051600E4A42F8F8
:1008C000231062B610E00322094CE25401F1080340
:1008D000436000F00803002B14BFC82388230A8854
:1008E00043EA0243036062B610BC70470080FF1FFA
:1008F0004C90FF1FE490FF1FF490FF1F2DE9F04F75
:1009000085B0AA4CDFF8F4A2DFF8F4B22578EDB296
:1009100015F0040F1DD0A64B1B7813F0FF0F16D057
:10092000A44B1A7802F0FF032AB1013BDBB2A14AC3
:10093000137003B900BEA04B1A7802F0FF0332B166
:10094000013BDBB29C4A13700BB900F01DFD042380
:10095000237015F0080F00F0ED829AF80030DBB23A
:100960001D0940F02882954E9D0806EBC5035A6884
:1009700056F83530C3F38303013B0C2B00F217828A
:10098000DFE813F0D201D20115021502150215029B
:1009900015021502EF011502150215020D00884916
:1009A00013680B6052684A60864A46F83520002278
:1009B00085490A6081490A618A610121834A11706F
:1009C0009BB240F28162934218D8B3F5D06F2ED219
:1009D000B3F5817F00F02B8106D8802B00F0D78003
:1009E000822B00F0DA806DE140F20232934200F097
:1009F0003381B3F5A06F00F0698163E142F2210217
:100A0000934200F08D8107D8B3F5086F00F0B980EC
:100A1000B3F5106F11D055E142F22122934200F05C
:100A2000488142F22132934200F050814AE1684B02
:100A30005D68002D40F0258137E1614B9A785C4B71
:100A40001A705E4D05F180062B6A13F0800F03D0FB
:100A5000686A083800F03EFB0835B542F4D15D4BBA
:100A60000093DFF8A0815C4B0193DFF89C91002795
:100A70003E46009B0293186828B1456800F02AFBA7
:100A80002846002DF9D1029B1E600297534B43F874
:100A90002760CDF80C80D8F8000028B1456800F038
:100AA00019FB2846002DF9D1039B1E60019B43F8DA
:100AB000046B01934A4B029A23F8126099F80030B4
:100AC000023B032B09D8DFE803F00205020589F891
:100AD000006002E0012389F800300137009B0433F5
:100AE000009308F1040809F10109042FC1D1002283
:100AF0003C4B1A7001253C4EDFF810912F4F904669
:100B000019F8013B06F8043B13F0080F2BD000F056
:100B1000C1FA034640B1AA0007EB451108334B6008
:100B2000324947F8321006E0AB0047F833802D4ACF
:100B300013780133137000F0ADFA024650B1AB00E8
:100B400043F0010307EBC30108324A601D4A47F82E
:100B5000332008E0AB0043F0010347F83380214A1B
:100B6000137801331370AB0043F0020247F8328070
:100B700043F0030347F8338001351D4B9E42BFD13C
:100B800017E20B4B1B781B4D2B700123A3E0194D73
:100B900000232B706B7002239DE0094B9B88042B74
:100BA00036D90F22144B1A70BAE000BF80200740DC
:100BB0001891FF1FA190FF1F1A91FF1F0080FF1FB8
:100BC0000491FF1FC80040003890FF1F1991FF1FBC
:100BD000703B00009090FF1FF490FF1F3C90FF1FA0
:100BE0003493FF1F0E91FF1FC42007408800400070
:100BF000D42007401091FF1FC020074090200740DD
:100C000094200740E490FF1F4C90FF1F6C3B0000B6
:100C10009D4A0021117051709C4A12F8233013F044
:100C2000020F56D0984D01232B70022353E0984BAE
:100C30009B8803F07F03042B02DC954A52881AB18B
:100C40000F22924B1A706BE0904911F8232022F08A
:100C5000020201F82320ACE18D4B9B8803F07F0357
:100C6000042B02DC8A4A52881AB10F22874B1A7071
:100C700056E0864911F8232042F0020201F82320B1
:100C800097E1834B59889888824B1A888A4208D109
:100C90005A88824205D1090A03290CBF2B781B8987
:100CA00019E00C335D68002DEFD10F22774B1A70DD
:100CB00036E0794B1A68794B1A60754B9A78784B05
:100CC0001A7076E10F22714B1A7029E000231D463D
:100CD00001E002236C4D6E4AD6889E4228BF1E4614
:100CE0003746402E28BF402739462846FFF722FDC9
:100CF0003D44F61B03D13F2F00F2608110E03746E0
:100D0000402E28BF402739462846FFF713FD3D44B3
:100D1000F61B01D13F2F03D9624B1D60624B1E8031
:100D200001238BF8003042E0594B198842F221032D
:100D3000994212D15D4BD01D12F8011B03F8011F1F
:100D40008242F9D15A4B1B68862B02D10F22594B94
:100D50001A7000210846FFF7EDFC574B46F8353076
:100D600025E0504B1F68BFB1DFF83C81B8F8005058
:100D70002E46402D28BF402631463846FFF7DAFC84
:100D8000AD1BADB2A8F800500DB9402E01D13E44C4
:100D900000E00026434B1E603D4B1B88B3F5A06F5F
:100DA00005D13B4B00225A709B78444A13700123B3
:100DB0008BF80030BBE0424E9F0806EBC708D8F81E
:100DC0000420A2F10800013DEDB213F0080F47D056
:100DD00000F080F93B4B53F825304BB35968394A42
:100DE00042F8251003F10802C8F80420364A525D83
:100DF000032A12D8DFE802F002060A0E0321324A63
:100E000051550AE00221304A515506E005212E4A8B
:100E1000515502E004212C4A515518F0080F14BF17
:100E2000C82288221B8842EA034346F837307EE016
:100E3000254B5B5D032B0BD8DFE803F079790206C5
:100E40000022214B5A5572E001221F4B5A556EE089
:100E500018F0080F14BF032202221B4B5A5566E0FC
:100E600056F837301B0C22F8083C002B57D00023D3
:100E700022F8063C42F8043C144B53F825303BBBA7
:100E8000124B43F8250027E01091FF1FC0200740B8
:100E90000491FF1F703B00003490FF1F4493FF1F1D
:100EA0002891FF1F3890FF1F0C91FF1F3B93FF1FDE
:100EB0003C93FF1FA190FF1FC800400098200740EF
:100EC0000080FF1FE490FF1F4C90FF1F9090FF1FBA
:100ED0003E4B53F8253058603C4B43F825003C49C5
:100EE00031F8150032F8083C034421F8153000F0C1
:100EF000D1F8034658B10833C8F8043018F0080F89
:100F0000344A354B08BF134646F837300FE000230C
:100F100046F83730314A13780133137007E018F080
:100F2000080F2C4A2C4B08BF134646F837300823CD
:100F30002370EBE415F0010F21D0294902230B7037
:100F40000022284B1A70284B22481860274C5C60FE
:100F500098602748D8601A619A610D20254B187057
:100F6000FF23254803700838037018300270234AA5
:100F700013709F22224B1A7001230B7023E015F08F
:100F8000800F05D00D221B4B1A708022403B1A7037
:100F900015F0020F06D0184A1378DBB21370022244
:100FA000184B1A7015F0100F0DD01022154B1A7037
:100FB00009E000210846FFF7BDFBB1E60021284605
:100FC000FFF7B8FBACE605B0BDE8F08F3C90FF1F23
:100FD0003493FF1F88004000C80040000E91FF1F9F
:100FE00094200740A090FF1F0080FF1F5090FF1F1C
:100FF000A490FF1FC0200740882007408C20074096
:10100000842007408020074008B501F0B7FD1C4848
:1010100000F18801034600221A605A6008338B42AF
:10102000FAD1184A136843F480231360C0F30722EF
:10103000154B1A70C0F3074214331A70000E0433B4
:101040001870FF23114A137008321370783A137026
:1010500001238432137000216C3211707C3A1370BA
:1010600070220B4B1A704FF40072A3F241331A60D6
:10107000102203F1C04303F5C8231A7008BD00BF56
:101080000080FF1F348004409C20074080200740E0
:1010900049E400E072B60D4B1A68B2FA82F30B2BEA
:1010A00002D962B6002070474FF00041D94022EAD1
:1010B000010206490A6062B6054903EBC303DB007F
:1010C000C8180022CA504260704700BF2087FF1F27
:1010D000BC83FF1F08B50F4BC31A0F4AA2FB0323A3
:1010E0001B090B2B14D80D4A12783AB10C4A12780E
:1010F00012F0FF0F02D0FFF777FB08BD72B6094967
:101100004FF0004222FA03F30A681A430A6062B6FB
:1011100008BD00BFBC83FF1F398EE3380E91FF1F4F
:101120001891FF1F2087FF1F10B5134B1B6853B981
:10113000124B1B7813F0FF0F18D00320FFF71EFB94
:101140000D4B1860A8B10C4B186843885A1C034417
:101150001C7A03889A4206D3FFF7BCFF0022064B95
:101160001A60204610BD4280204610BD4FF0FF306F
:1011700010BD4FF0FF3010BD2491FF1F1891FF1FCD
:1011800008B50D4B1B6883B90C4B1B7813F0FF0F90
:1011900008D00320FFF7F2FA074B186028B94FF088
:1011A000FF3008BD4FF0FF3008BD034B1A6853886D
:1011B0001344187A08BD00BF2491FF1F1891FF1F28
:1011C000044B9888044B1B681BB11A885B88D31AA0
:1011D000184470473493FF1F2491FF1F0B4B1B785B
:1011E00013F0FF0F11D010B5094B186820B1FFF7AD
:1011F00071FF0022064B1A6003242046FFF7BEFA57
:1012000010B1FFF767FFF8E710BD70471891FF1F97
:101210002491FF1F2DE9F84F0122374B1A708A469F
:10122000002963D004460D46344FDFF8DC80994630
:10123000334E3B6883BB98F8003013F0FF0F06D1A4
:1012400000222D4B1A704FF0FF30BDE8F88F4AF2A4
:10125000F92B0420FFF7B2FA072809D8012389F8EF
:101260000030FFF717FF3860B0B9002389F800306D
:10127000BBF1010B01D0337833B10122204B1A703E
:101280004FF0FF30BDE8F88F00F026F998F80030F5
:1012900013F0FF0FDDD1D3E70023337039684A889C
:1012A000C2F14000A84228BF284601F1080302EB22
:1012B000000EA1F802E02D1A48B1013A134420446F
:1012C00014F8012B03F8012FA042F9D104464B88F2
:1012D0003F2B06D940230B800420FFF7C9FA0023D7
:1012E0003B600522074B1A70002DA2D10022024B51
:1012F0001A705046BDE8F88F1B91FF1F1C91FF1F0D
:101300002091FF1F1A91FF1F1891FF1F00B583B096
:1013100002AB03F8010D01211846FFF77BFF03B074
:101320005DF804FB144B1B7813F0FF0F23D010B5AE
:101330000122124B1A70124B196851B10024114B43
:101340001C704B880B800420FFF792FA0C4B1C603A
:101350000DE0FFF79FFE014630B10022094B1A70E5
:101360000420FFF785FA02E00122064B1A700022E2
:10137000024B1A7010BD70471891FF1F1B91FF1F81
:101380001C91FF1F1A91FF1F08B50E4B1B7813F01D
:10139000FF0F16D10C4B196841B14B880B8004200C
:1013A000FFF766FA0022084B1A6008BDFFF772FECD
:1013B000014618B10420FFF75BFA08BD0122034B78
:1013C0001A7008BD1B91FF1F1C91FF1F1A91FF1F70
:1013D00000B583B0054B1B88ADF8043003685B682B
:1013E000022201A9984703B05DF804FB443B0000CA
:1013F000F0B58BB022B903681B68C9B2984731E0D9
:101400001646012A14BF16460A2621B930228DF845
:101410002520212417E021243746B1FBF6F206FBF4
:101420001212D2B22546092A94BF30323732D2B2D4
:101430000DF1280E754405F8242CB1FBF7F111B11C
:10144000013CE4B2E9E733B1013CE4B20AAB234426
:101450002D2203F8242C03685B68C4F1220201A941
:10146000214498470BB0F0BD08B5FEF7FFFFFFF72A
:1014700031F800F031F8FAE708B5FFF7AFFE08BD24
:1014800008B5FFF74FFF08BD08B5FFF779FE08BDA7
:1014900008B5FFF749FE08BD08B5FFF791FE08BD86
:1014A00008B508461146FFF7B5FE08BD08B5084661
:1014B000FFF72CFF08BD00BF704700BF044B0022A0
:1014C0001A714FF47A7199601A73024A1A60704760
:1014D0002C91FF1F503B000008B50F4B1B78CBB978
:1014E00001220D4B1A70FFF76BFE08B1FFF7E4FF06
:1014F00000F0D2FB08B101F019FC00F081FF08B147
:1015000001F0B6FC01F052FA08B101F053FD0022DF
:10151000014B1A7008BD00BF3C91FF1F60223A4B7F
:101520001A70E12201331A70384B1B78082B10D146
:10153000012203F1804303F56C331A60132334490D
:101540000B6001F5FF2101F2FC710A60314A136062
:101550001FE00A2B0DD139222F4B1A6013232C497F
:101560000B6001F5FF2101F2FC710A60294A13604A
:101570000FE00C2B0CBF35223D22274B1A601223A3
:1015800023490B6001F5FF2101F2FC710A60214A39
:101590001360224B1B7833B10123214A136002F5FB
:1015A0000022136005E000231D4A136002F50022AB
:1015B00013601C4B1B78012B06D880231A4A13603A
:1015C00002F5002213601AE0042B06D88423164A81
:1015D000136002F50022136011E0082B06D8852362
:1015E000114A136002F50022136008E0102B94BF2B
:1015F000862387230C4A136002F500221360012220
:101600000A4B1A70704700BF004007402487FF1F35
:101610000CB003400CB00B4008B003403E91FF1FDC
:1016200020B003402587FF1F24B003403D91FF1FDA
:10163000024A136801331360704700BF3490FF1FE4
:1016400008B50D4C236813F4802F01D0FFF756F92D
:10165000236813F4806F01D000F0A8FB236813F413
:10166000006F01D000F056FF236813F4805FE9D0CB
:1016700001F012FAE6E700BF3480044008B5FFF736
:10168000DFFF00BF1022014B1A8070470020054089
:10169000704700BF08B50B4B1B6880B16A4618182D
:1016A000A2F58052904206D301F094FC0C23036013
:1016B0004FF0FF3008BD034A1060184608BD1846B9
:1016C00008BD00BF2887FF1FEFF31383ABB9EFF30B
:1016D0001083ABB9EFF3058323B10F2B05D9094A6A
:1016E000985C03E04FF4807000E00020EFF311837A
:1016F0003BB1984228BF184670474FF0FF30704703
:1017000000207047F0E300E0F0B44D1E2E460024A8
:10171000B0FBF2F302FB13032746092B94BF3033CF
:101720003733DBB206F8013FB0FBF2F008B1013409
:10173000EEE70B1900225A7094420BDD1A46002383
:1017400015F8010F14782C7002F801090133F81A0A
:101750008342F5DB0846F0BC704700BF254A13689A
:1017600043F4806313600023234A1370234A1370E9
:10177000234A1370234A1370234A1370234B1B7898
:1017800013B1152B05D008E040F21332204B1A603C
:1017900003E040F213321F4B1A601F4B1B78012BE2
:1017A00002D0052B05D008E04FF451721B4B1A6094
:1017B00003E04FF451721A4B1A60C0F34432194BD4
:1017C0001A70C0F347125A7000F01F00987204227A
:1017D0009A700221D9745A7588221A743C22DA70E0
:1017E0004022114B1A704FF40052A3F229331A60B1
:1017F000704700BF34800440CC91FF1F4591FF1F0C
:10180000D491FF1FCD91FF1F4491FF1F8891FF1FAF
:1018100040A0044018C004402C87FF1F44A004408F
:101820001CC0044000A006402DE400E0154B9B784E
:1018300003F0EC0200F00303134310F0040F18BF91
:1018400043F010030F4A937000F00F03042B03D1F1
:10185000937943F0400393710A4B5B7903F0EF03F4
:1018600010F0100F18BF43F01003064A537193791C
:1018700003F0EF0310F0200F18BF43F01003014AEC
:101880009371704700A00640224B1B6813F4806FD1
:101890003FD010B5204B1B7813F0FF0F06D01E4C25
:1018A000FFF71AFE237813F0FF0FF9D14FF400521F
:1018B0001A4B1A6000221A4BDA701A4B1B7813B1BC
:1018C000152B05D008E040F20312174B1A6003E015
:1018D00040F20312154B1A60154B1B7803F07F037F
:1018E000012B02D0052B05D008E040F20312114B6A
:1018F0001A6003E040F203120F4B1A6000230F4AF4
:1019000013700F4A13700F4B1B680BB101221A7032
:1019100010BD7047348004404491FF1F84E100E013
:1019200000A006408891FF1F40A0044018C004405A
:101930002C87FF1F44A004401CC00440CC91FF1F13
:101940004591FF1F4091FF1F10B50446094A1378C7
:1019500013F0FF0FFBD101212046FEF713FE0021FB
:101960002046FEF7EBFD044B53F83420034B1A607E
:1019700010BD00BF4491FF1F343A0000D091FF1FFB
:1019800010B40C4609B140F08000174B1B78984208
:1019900028D0164A126812F4806F21D003F07F031A
:1019A000012B02D0052B04D006E00022104B1A6058
:1019B00002E000220F4B1A60002C14BF6023442366
:1019C00000F07F02012A02D0052A05D008E043F486
:1019D0004073074A136003E043F44073054A136001
:1019E000014B187010BC70472C87FF1F34800440D7
:1019F00044A004401CC00440114B1B7883421ED0FD
:101A0000104A126812F4806F17D013B1152B04D04E
:101A100006E000220C4B1A6002E000220B4B1A6019
:101A200010B1152805D008E040F21332064B1A60B9
:101A300003E040F21332054B1A60014B18707047F7
:101A40008891FF1F3480044040A0044018C0044027
:101A50000D4B1B6813F4806F13D021280DD810B5DF
:101A60000A4C0B4B53F8303023600121FEF78AFDFE
:101A7000236800221A70012010BD0020034B18605B
:101A800070470020704700BF348004404091FF1F22
:101A9000343A0000114B1B6813F4806F1BD01228DE
:101AA00004D140F202320E4B1A600DE0142804D12A
:101AB00040F202320B4B1A6006E00B4A537B03F0F4
:101AC000FE03537300207047074A537B43F0010322
:101AD0005373012070470020704700BF34800440DA
:101AE0000CA0044014C0044000A00640214B1B6819
:101AF00013F4806F3CD02DE9F0411F4B1B680BB1F4
:101B000001221A7007461D4B1C780134402C28BF57
:101B100000241B4D1B4EDFF8708017E0FFF7D4FD4B
:101B200040280FDC337913F0800F0FD02B7801336E
:101B3000402B28BF002318F80320D2B2F271DBB289
:101B40002B7003E0FF2801DDFFF7C6FC2B78DBB22A
:101B50009C42E3D0FFB20C4B1F5501220B4B1A7075
:101B6000E4B2064B1C70BC22064BDA70BDE8F08173
:101B7000704700BF34800440D091FF1FD491FF1FF5
:101B8000CD91FF1F00A006404891FF1F4491FF1F09
:101B9000284B1B6813F4806F4AD02DE9F0470646A6
:101BA000254B1B680BB101221A7006EB010A564542
:101BB00039D2DFF89480214D214FDFF8909098F8CA
:101BC00000400134402C28BF00242B78DBB29C421B
:101BD0001DD1BC23FB70FFF777FD40280FDC3B795C
:101BE00013F0800F0FD02B780133402B28BF002338
:101BF00019F80320D2B2FA71DBB22B7003E0FF2890
:101C000001DDFFF769FC2B78DBB29C42E3D016F8CC
:101C1000013B09F8043001220A4B1A70E4B288F83B
:101C20000040B245CBD1BC22054BDA70BDE8F0874D
:101C3000704700BF34800440D091FF1FCD91FF1F3B
:101C400000A006404491FF1FD491FF1F4891FF1F41
:101C5000074B1B7813F0FF0F08D010B5044CFFF7AB
:101C60003BFC237813F0FF0FF9D110BD704700BF84
:101C70004491FF1F064B1B78DBB2064A1078C0B2B6
:101C800083422CBF3F3000F1FF30C01A704700BFC5
:101C9000D491FF1FCD91FF1F054B1878C0B2054BA3
:101CA0001B78DBB2984238BF4030C01A704700BF83
:101CB000CC91FF1F4591FF1F10B4184B1B78DAB26F
:101CC000174B1B78DBB29A4217D001333F2B17D842
:101CD0001449C85CC0B2D9B2114C217012490968CC
:101CE000C9B19A4202D3FFE7D31A01E04032D31AB6
:101CF0001A2B10DC00230B700DE04FF0FF300AE0D0
:101D0000084B1878C0B20021054B1970064B1968B2
:101D100000230029E8D110BC704700BFCC91FF1F01
:101D20004591FF1F8C91FF1F4091FF1F094B1A78AF
:101D3000D2B2094B1B78DBB29A4207D00133402B59
:101D400028BF0023054AD05CC0B270474FF0FF3077
:101D5000704700BFCC91FF1F4591FF1F8C91FF1F63
:101D60000D4B1B6813F4806F14D00C4BDA7802F023
:101D7000CB02DA7040225A74DA7842F03402DA7018
:101D8000074B1B78DBB2074A1370074B1B680BB17C
:101D900000221A70704700BF3480044000A0064043
:101DA0004591FF1FCC91FF1F4091FF1F70B43E4B28
:101DB0001B7913F0300F32D072B63B4B9B7D03F092
:101DC000FF022BB9384BDA7940225A7462B626E00A
:101DD00062B6364B1878C0B2354B1C78E4B2324D3F
:101DE000344EEB79D9B2431C402B28BF0023A342C9
:101DF0001CBFF1541846531E13F0FF02F1D1C3B2B9
:101E00002A4A13702C4B1B684BB1A0422EBF001BFB
:101E1000C4F1400400192728C4BF01221A70224BC4
:101E2000DA78D2B212F0800F29D01B7913F0800F2C
:101E300025D0224B1C78E4B2214B1B78DBB29C42AC
:101E400012D019481F4D01E0A3420CD00133402BA2
:101E500028BF00230179E95CC9B2C171017DC9B213
:101E60000729F1D900E02346DBB215490B700E4B70
:101E70001B7913F0800F02D07C210B4BD97012F02C
:101E8000400F0ED0084B1B7913F0400F09D00022F1
:101E90000D4B1A700D4B1B6803B11A703C22024B9C
:101EA000DA7070BC704700BF00A00640CC91FF1FE5
:101EB0004591FF1F8C91FF1F4091FF1FD491FF1F81
:101EC000CD91FF1F4891FF1F4491FF1FD091FF1F2D
:101ED000254A136843F4006313600023234A1370F8
:101EE000234A1370234A1370234A1370234A137032
:101EF000234B1B78092B02D01A2B05D008E040F2A7
:101F00001332204B1A6003E040F213321E4B1A606A
:101F10001E4B1B780A2B02D01F2B05D008E04FF474
:101F200051721B4B1A6003E04FF45172194B1A6047
:101F3000C0F34432184B1A70C0F347125A7000F0C5
:101F40001F00987204229A700221D9745A7588224F
:101F50001A743C22DA704022104B1A704FF400427F
:101F6000A3F22B331A607047348004404892FF1F5D
:101F7000DD91FF1F5092FF1F4992FF1FDC91FF1F51
:101F80002D87FF1F0CB0044004D004402E87FF1F94
:101F900010B0044000D0044000B006402FE400E040
:101FA000154B9B7803F0EC0200F00303134310F091
:101FB000040F18BF43F010030F4A937000F00F0393
:101FC000042B03D1937943F0400393710A4B5B795F
:101FD00003F0EF0310F0100F18BF43F01003064A90
:101FE0005371937903F0EF0310F0200F18BF43F003
:101FF0001003014A9371704700B00640234B1B68E1
:1020000013F4006F40D010B5214B1B7813F0FF0F75
:1020100006D01F4CFFF760FA237813F0FF0FF9D1B9
:102020004FF400421B4B1A6000221B4BDA701B4B13
:102030001B78092B02D01A2B05D008E040F20312BE
:10204000174B1A6003E040F20312164B1A60164B4E
:102050001B7803F07F030A2B02D01F2B05D008E06A
:1020600040F20312114B1A6003E040F20312104BCE
:102070001A6000230F4A13700F4A13700F4B1B682E
:102080000BB101221A7010BD704700BF34800440AC
:10209000DC91FF1F84E100E000B006402D87FF1FA8
:1020A0000CB0044004D004402E87FF1F10B0044041
:1020B00000D004404892FF1FDD91FF1FD891FF1F01
:1020C00010B50446094A137813F0FF0FFBD1012124
:1020D0002046FEF757FA00212046FEF72FFA044B60
:1020E00053F83420034B1A6010BD00BFDC91FF1F72
:1020F000343A00004C92FF1F10B40C4609B140F076
:102100008000174B1B78984228D0164A126812F4A8
:10211000006F21D003F07F030A2B02D01F2B04D0C5
:1021200006E00022104B1A6002E000220F4B1A60FA
:10213000002C14BF6023442300F07F020A2A02D03F
:102140001F2A05D008E043F44073074A136003E0F8
:1021500043F44073054A1360014B187010BC70477C
:102160002E87FF1F3480044010B0044000D004408C
:10217000124B1B78834220D0114A126812F4006F70
:1021800019D0092B02D01A2B04D006E000220D4BE7
:102190001A6002E000220C4B1A60092802D01A28AB
:1021A00005D008E040F21332064B1A6003E040F21B
:1021B0001332054B1A60014B187070472D87FF1FB3
:1021C000348004400CB0044004D004400D4B1B6824
:1021D00013F4006F13D021280DD810B50A4C0B4B07
:1021E00053F8303023600121FEF7CCF92368002238
:1021F0001A70012010BD0020034B186070470020AA
:10220000704700BF34800440D891FF1F343A00006B
:102210000D4B1B6813F4006F13D017280AD140F23E
:1022200002320A4B1A600A4A537B43F0010353738C
:1022300001207047064A537B03F0FE0353730020CE
:1022400070470020704700BF3480044008B004404D
:1022500000B00640214B1B6813F4006F3CD02DE901
:10226000F0411F4B1B680BB101221A7007461D4B32
:102270001C780134282C28BF00241B4D1B4EDFF88E
:10228000708017E0FFF720FA40280FDC337913F055
:10229000800F0FD02B780133282B28BF002318F88C
:1022A0000320D2B2F271DBB22B7003E0FF2801DD14
:1022B000FFF712F92B78DBB29C42E3D0FFB20C4B54
:1022C0001F5501220B4B1A70E4B2064B1C70BC2246
:1022D000064BDA70BDE8F081704700BF34800440DF
:1022E0004C92FF1F5092FF1F4992FF1F00B0064003
:1022F000E091FF1FDC91FF1F284B1B6813F4006F58
:102300004AD02DE9F0470646254B1B680BB1012248
:102310001A7006EB010A564539D2DFF89480214D38
:10232000214FDFF8909098F800400134282C28BF06
:1023300000242B78DBB29C421DD1BC23FB70FFF73D
:10234000C3F940280FDC3B7913F0800F0FD02B78B6
:102350000133282B28BF002319F80320D2B2FA71C9
:10236000DBB22B7003E0FF2801DDFFF7B5F82B7817
:10237000DBB29C42E3D016F8013B09F8043001229D
:102380000A4B1A70E4B288F80040B245CBD1BC22A7
:10239000054BDA70BDE8F087704700BF3480044019
:1023A0004C92FF1F4992FF1F00B00640DC91FF1FB7
:1023B0005092FF1FE091FF1F074B1B7813F0FF0F98
:1023C00008D010B5044CFFF787F8237813F0FF0FFF
:1023D000F9D110BD704700BFDC91FF1F064B1B7881
:1023E000DBB2064A1078C0B283422CBF273000F11E
:1023F000FF30C01A704700BF5092FF1F4992FF1F65
:10240000054B1878C0B2054B1B78DBB2984238BF39
:102410004030C01A704700BF4892FF1FDD91FF1F78
:1024200010B4184B1B78DAB2174B1B78DBB29A4208
:1024300017D001333F2B17D81449C85CC0B2D9B2AA
:10244000114C217012490968C9B19A4202D3FFE7C1
:10245000D31A01E04032D31A1A2B10DC00230B7080
:102460000DE04FF0FF300AE0084B1878C0B20021B1
:10247000054B1970064B196800230029E8D110BCE0
:10248000704700BF4892FF1FDD91FF1F0892FF1F9A
:10249000D891FF1F094B1A78D2B2094B1B78DBB2D7
:1024A0009A4207D00133402B28BF0023054AD05C55
:1024B000C0B270474FF0FF30704700BF4892FF1F17
:1024C000DD91FF1F0892FF1F0D4B1B6813F4006F77
:1024D00014D00C4BDA7802F0CB02DA7040225A7436
:1024E000DA7842F03402DA70074B1B78DBB2074A25
:1024F0001370074B1B680BB100221A70704700BFA6
:102500003480044000B00640DD91FF1F4892FF1F59
:10251000D891FF1F70B43E4B1B7913F0300F32D0AF
:1025200072B63B4B9B7D03F0FF022BB9384BDA7937
:1025300040225A7462B626E062B6364B1878C0B2B2
:10254000354B1C78E4B2324D344EEB79D9B2431C92
:10255000402B28BF0023A3421CBFF1541846531E32
:1025600013F0FF02F1D1C3B22A4A13702C4B1B683F
:102570004BB1A0422EBF001BC4F140040019272814
:10258000C4BF01221A70224BDA78D2B212F0800F47
:1025900029D01B7913F0800F25D0224B1C78E4B290
:1025A000214B1B78DBB29C4212D019481F4D01E031
:1025B000A3420CD00133282B28BF00230179E95C0A
:1025C000C9B2C171017DC9B20729F1D900E0234622
:1025D000DBB215490B700E4B1B7913F0800F02D044
:1025E0007C210B4BD97012F0400F0ED0084B1B7999
:1025F00013F0400F09D000220D4B1A700D4B1B68D1
:1026000003B11A703C22024BDA7070BC704700BFF5
:1026100000B006404892FF1FDD91FF1F0892FF1F88
:10262000D891FF1F5092FF1F4992FF1FE091FF1F9B
:10263000DC91FF1F4C92FF1F174A136843F480532D
:1026400013600023154A1370154A1370154A13704E
:10265000154A1370154A137040F21331144A116071
:102660004FF4517104321160C0F34431114A1170BA
:10267000C0F34711517000F01F00907293701374F3
:102680002C23D37040220C4B1A704FF40032A3F26B
:102690002D331A60704700BF34800440C492FF1F7E
:1026A0005992FF1FCC92FF1FC592FF1F5892FF1F28
:1026B00008C0044000C0064031E400E0154B9B78A0
:1026C00003F0EC0200F00303134310F0040F18BFF3
:1026D00043F010030F4A937000F00F03042B03D153
:1026E000937943F0400393710A4B5B7903F0EF0356
:1026F00010F0100F18BF43F01003064A537193797E
:1027000003F0EF0310F0200F18BF43F01003014A4D
:102710009371704700C00640144B1B6813F4805F30
:1027200023D010B5124B1B7813F0FF0F06D0104CBE
:10273000FEF7D2FE237813F0FF0FF9D14FF40032E9
:102740000C4B1A6000230C4AD37040F203120B4961
:102750000A6004310A600A4A13700A4A13700A4B6D
:102760001B680BB101221A7010BD70473480044001
:102770005892FF1F84E100E000C0064008C00440FA
:10278000C492FF1F5992FF1F5492FF1F10B50446B9
:10279000094A137813F0FF0FFBD101212046FDF702
:1027A000F1FE00212046FDF7C9FE044B53F834200A
:1027B000034B1A6010BD00BF5892FF1F343A00004F
:1027C000C892FF1F10B40C4609B140F08000104BB6
:1027D0001B78984219D00F4A126812F4805F12D009
:1027E00003F07F03082B02D100220B4B1A60002C50
:1027F00014BF6023442300F07F02082A03D143F46E
:102800004073054A1360024B187010BC704700BF3C
:102810002F87FF1F348004400CC00440704700BF66
:102820000D4B1B6813F4805F13D021280DD810B511
:102830000A4C0B4B53F8303023600121FDF7A2FE08
:10284000236800221A70012010BD0020034B18607D
:1028500070470020704700BF348004405492FF1F2F
:10286000343A00000D4B1B6813F4805F13D00E2820
:102870000AD140F202320A4B1A600A4A537B43F0F3
:102880000103537301207047064A537B03F0FE0394
:102890005373002070470020704700BF348004400D
:1028A00004C0044000C00640214B1B6813F4805F45
:1028B0003CD02DE9F0411F4B1B680BB101221A706F
:1028C00007461D4B1C780134282C28BF00241B4DC3
:1028D0001B4EDFF8708017E0FEF7F6FE40280FDC95
:1028E000337913F0800F0FD02B780133282B28BFBA
:1028F000002318F80320D2B2F271DBB22B7003E090
:10290000FF2801DDFEF7E8FD2B78DBB29C42E3D027
:10291000FFB20C4B1F5501220B4B1A70E4B2064B51
:102920001C70AC22064BDA70BDE8F081704700BF26
:1029300034800440C892FF1FCC92FF1FC592FF1F36
:1029400000C006405C92FF1F5892FF1F38B5054635
:102950000C4629B115F8010BFFF7A6FF013CF9D190
:1029600038BD00BF074B1B7813F0FF0F08D010B520
:10297000044CFEF7B1FD237813F0FF0FF9D110BD21
:10298000704700BF5892FF1F064B1B78DBB2064A08
:102990001078C0B283422CBF273000F1FF30C01A3C
:1029A000704700BFCC92FF1FC592FF1F054B1878E0
:1029B000C0B2054B1B78DBB2984238BF4030C01A1A
:1029C000704700BFC492FF1F5992FF1F10B4184BED
:1029D0001B78DAB2174B1B78DBB29A4217D001335F
:1029E0003F2B17D81449C85CC0B2D9B2114C217022
:1029F00012490968C9B19A4202D3FFE7D31A01E02C
:102A00004032D31A1A2B10DC00230B700DE04FF06C
:102A1000FF300AE0084B1878C0B20021054B19704E
:102A2000064B196800230029E8D110BC704700BF8D
:102A3000C492FF1F5992FF1F8492FF1F5492FF1FE1
:102A4000094B1A78D2B2094B1B78DBB29A4207D0F5
:102A50000133402B28BF0023054AD05CC0B2704729
:102A60004FF0FF30704700BFC492FF1F5992FF1F05
:102A70008492FF1F054B1B78DBB2054A1370054B90
:102A80001B680BB100221A70704700BF5992FF1FDC
:102A9000C492FF1F5492FF1F2E4B1B7913F0200F7F
:102AA00022D02C4BDB79D9B22B4B1B780133402B36
:102AB00028BF0023294A1278D2B2934204D0284A70
:102AC000D154DAB224490A70264A116861B1264A03
:102AD0001278D2B293422EBF9B1AC2F140029B18C9
:102AE000272BC4BF01230B701A4BDB78DBB213F02A
:102AF000800F1CD0174A127912F0800F17D01B4A92
:102B00001178C9B2184A1278D2B2914203D16C211D
:102B1000104AD1700BE00132282A28BF0022144944
:102B2000895CC9B20B48C171D2B20F490A7013F067
:102B3000400F0ED0074B1B7913F0400F09D0002235
:102B40000C4B1A700C4B1B6803B11A702C22014BF2
:102B5000DA70704700C00640C492FF1F5992FF1FF1
:102B60008492FF1F5492FF1FC592FF1FCC92FF1F3C
:102B70005C92FF1F5892FF1FC892FF1F72B61D4B39
:102B800070221A7041211C4A11700F21013A1170F4
:102B900080221A701A46137813F0800FFBD000B50C
:102BA00085B0164B186862B6154B98429CBF00EB77
:102BB000800040000A2201A9FEF7A6FD9DF804301E
:102BC0007BB908E010F8012F32B121F8022F013350
:102BD0000A2BF7D100E0002301335B00094A137090
:102BE00005E0084921F8023F01A80123EAE705B002
:102BF0005DF804FB000002400700024008000240AC
:102C00007F969800BC87FF1F08B503681B68C9B290
:102C1000984708BD08B503681B68C9B2984708BD46
:102C200008B503681B68C9B2984708BD08B50368B2
:102C30001B68C9B2984708BD08B50846FEF756FF9D
:102C4000012008BD08B50846FEF750FF012008BD69
:102C500038B50D46084600F0D3FC04460146284628
:102C6000FEF796FF204638BD10B5084614461146BB
:102C7000FEF78EFF204610BD08B5FEF7FBFF08BD2E
:102C800008B5FFF76DF808BD08B50846FEF702FF66
:102C9000003018BF012008BD08B50846FEF7D8FE71
:102CA000003018BF012008BD08B508461146FEF7E0
:102CB00067FE08BD08B50846FEF79EFE08BD00BFCA
:102CC00008B50846FEF740FE08BD00BF08B5FEF790
:102CD000DBFD08BD08B54B0803F1376000F5D830BF
:102CE000B0FBF1F0FEF73AFD08BD00BF10B5144689
:102CF0004B0803F1376000F5D830B0FBF1F0FEF778
:102D00002DFD2046FEF792FD10BD00BF08B5FEF771
:102D10009FFF08BD08B5FFF709F808BD08B5FEF725
:102D2000CBFF08BD08B5FEF7B7FF08BD704700BF71
:102D3000044B00221A714FF47A7199601A73024A97
:102D40001A607047D092FF1FCC3B000008B50368A3
:102D50001B68C9B2984708BD08B503681B68C9B2AB
:102D6000984708BD08B503681B68C9B2984708BDF5
:102D700008B503681B68C9B2984708BD08B508467E
:102D8000FFF768FA012008BD08B50846FFF762FAA8
:102D9000012008BD38B50D46084600F031FC044658
:102DA00001462846FFF7A8FA204638BD10B5084668
:102DB00014461146FFF7A0FA204610BD08B5FFF7EC
:102DC0000DFB08BD08B5FFF77FFB08BD08B5084639
:102DD000FFF71EFA003018BF012008BD08B50846ED
:102DE000FFF7F4F9003018BF012008BD08B5084608
:102DF0001146FFF781F908BD08B50846FFF7B8F995
:102E000008BD00BF08B50846FFF75AF908BD00BF66
:102E100008B5FFF7F3F808BD08B54B0803F13760B4
:102E200000F5D830B0FBF1F0FFF752F808BD00BF55
:102E300010B514464B0803F1376000F5D830B0FBED
:102E4000F1F0FFF745F82046FFF7AAF810BD00BFE4
:102E500008B5FFF7B1FA08BD08B5FFF71BFB08BDC1
:102E600008B5FFF7DDFA08BD08B5FFF7C9FA08BDD8
:102E7000704700BF044B00221A714FF47A719960B9
:102E80001A73024A1A607047E092FF1F2C3C000040
:102E900008B503681B68C9B2984708BD08B5036840
:102EA0001B68C9B2984708BD08B503681B68C9B25A
:102EB000984708BD08B503681B68C9B2984708BDA4
:102EC00008B50846FFF7F0FC012008BD08B5084624
:102ED000FFF7EAFC012008BD38B50D46084600F0B2
:102EE0008FFB044601462846FFF730FD204638BDDB
:102EF00010B5084614461146FFF728FD204610BDC0
:102F000008B5FFF741FD08BD08B5FFF7B3FD08BDE3
:102F100008B50846FFF7A6FC003018BF012008BD21
:102F200008B50846FFF77CFC003018BF012008BD3B
:102F300008B508461146FFF745FC08BD08B5084628
:102F4000FFF76CFC08BD00BF08B50846FFF71EFC84
:102F500008BD00BF08B5FFF7DFFB08BD08B54B088B
:102F600003F1B76000F55840B0FBF1F0FFF764FBE8
:102F700008BD00BF10B514464B0803F1B76000F55B
:102F80005840B0FBF1F0FFF757FB2046FFF796FBE8
:102F900010BD00BF08B5FFF7E5FC08BD08B5FFF799
:102FA0004FFD08BD08B5FFF711FD08BD08B5FFF7D7
:102FB000FDFC08BD704700BF044B00221A714FF49E
:102FC0007A7199601A73024A1A607047F092FF1F73
:102FD0008C3C0000014B1868704700BF008CFF1F3D
:102FE00070B50F4E0F4D761BB61018BF002405D0DC
:102FF000013455F8043B9847A642F9D10A4E0B4DCF
:10300000761B00F071FEB61018BF002406D0013404
:1030100055F8043B9847A642F9D170BD70BD00BF7A
:10302000F43C0000F43C00000C3D0000F43C0000C7
:10303000024B0146186800F003B800BF008CFF1F68
:103040002DE9F04F01F10B05162D83B0064640F235
:103050009F8035F0070500F1BF80A94200F2BC80D7
:1030600000F0A6FAB5F5FC7FC0F09C826B0A00F078
:10307000BA80042B00F28381A80900F1390E4FEACF
:103080004E033830C44F07EB8303A3F108015C689B
:10309000A14207D1ACE0002A80F2AC80E468A142F2
:1030A00000F0A680636823F003035A1B0F2AF2DDA9
:1030B000B9493C6901F1080E744500F0B3816368B9
:1030C00023F003035A1B0F2A00F39981002AC1F849
:1030D00014E0C1F810E080F29E80B3F5007F80F02C
:1030E0006781DB0803F1010C01229B1002FA03F354
:1030F0004A6851F83C80C4F8088001EBCC091A43B7
:10310000A9F10803E3604A6041F83C40C8F80C406C
:10311000831001249C40944200F28A80144206D11C
:1031200020F003006400144200F10400FAD007EB21
:10313000C009CC468046DCF80C108C4507D173E101
:10314000002A80F28181C9688C4500F06D814B684E
:1031500023F003035A1B0F2AF2DD0C46D1F80CC0F2
:1031600054F8088F4B1945F001054D6042F00101FC
:10317000C8F80CC03046CCF808807B613B61C3F8CE
:103180000CE0C3F808E059609A5000F013FA1FE011
:10319000102921D800F00CFA1025062302207E4FBA
:1031A00007EB8303A3F108025C68944200F04581B9
:1031B0006368E168A56823F00303234430465A6836
:1031C000E96042F001028D605A6000F0F3F90834C2
:1031D000204603B0BDE8F08F00240C232046336066
:1031E00003B0BDE8F08F80234FF0400E3F2049E749
:1031F00070465DE72344E1685A68A56842F0010221
:10320000E96030468D605A6000F0D4F908342046F9
:1032100003B0BDE8F08F234430465A6842F0010203
:103220005A6000F0C7F90834204603B0BDE8F08FBB
:10323000BC68636823F00308A84504D3C5EB080302
:103240000F2B00F38C80554BDFF860911A68D9F88A
:10325000003001332A4404EB080A00F0608102F5D3
:1032600080520F3222F47F6222F00F021146304664
:10327000019200F0A1F9B0F1FF3F8346019A00F0FE
:103280005881824500F2FC80454B1968DA451144AB
:10329000196000F05381D9F80000DFF810E1013027
:1032A0001BBFCAEB0B0A5144CEF800B019601BF0EB
:1032B000070100F01781C1F10800C1F58051834476
:1032C00008315A44C2F30B02C2EB010949463046A9
:1032D000019300F071F9431C019B00F03F81CBEB9F
:1032E00000024A4442F001021968C7F808B0494494
:1032F000BC42CBF804201960DFF8A49016D0B8F1D6
:103300000F0F40F2FD806268A8F10C0323F0070361
:10331000E01802F001024FF0050E1A430F2B626015
:10332000C0F804E0C0F808E000F21C811D4BBC6846
:103330001A68914288BF19601B4B1A6891426268F3
:1033400088BF196022F003029542A2EB050301D861
:103350000F2B04DC304600F02DF9002438E7621909
:1033600043F0010345F0010565603046BA605360E3
:1033700000F020F90834204603B0BDE8F08F142B8C
:1033800071D9542B00F2A480280B00F16F0E4FEA84
:103390004E036E3076E600BF048CFF1F0893FF1FBC
:1033A0000C93FF1F0493FF1F0093FF1F1090FF1F3C
:1033B0005A0A042A5ED9142A00F2B38002F15C0191
:1033C00049005B3207EB810C57F82110DFF8DC81F4
:1033D000ACF1080C8C4500F088804A6822F00302AA
:1033E000934202D289688C45F7D1D1F80CC07A6833
:1033F000C4F80CC0A160CCF80840CC6088E6631922
:1034000042F0010745F00105656030464B610B61F4
:10341000C3F80CE0C3F808E05F609A50083400F08D
:10342000C9F8D5E64A6873E608F1010818F0030FF9
:103430000CF1080C7FF47FAE30E0DC68A34208BFDB
:1034400002303FF435AEB3E60B440C465A68C96807
:1034500054F8085F42F001025A603046E9608D601E
:1034600000F0A8F8B4E603F15C0E03F15B004FEA4C
:103470004E0307E69A0902F1390149003832A1E703
:10348000BC424A4B3FF400AF9C68626822F00302E2
:103490005AE759F80839994540F0828010F0030F37
:1034A00000F1FF30F5D17B6823EA04037B60640000
:1034B0009C423FF6BDAE002C3FF4BAAE1C424046E3
:1034C0007FF435AE64001C4200F10400FAD02EE611
:1034D000B3F5AA7F18D8E80B00F1780E4FEA4E0337
:1034E0007730CFE54FF48051EBE60121D8F8043076
:1034F000921001FA02F21A43C8F80420614677E7F5
:103500000123CBF8043025E740F25452934220D8EF
:10351000A80C00F17D0E4FEA4E037C30B2E510326C
:10352000A4E6542A26D81A0B02F16F0149006E3224
:1035300048E7BC68626822F0030205E7CAF30B00A3
:1035400000287FF4A8AE4244BB6842F001025A60F2
:10355000ECE6FE234FF07F0E7E2093E501224FF034
:103560000009C1E604F10801304600F029F9D9F854
:103570000010DBE6B2F5AA7F05D8DA0B02F178017C
:10358000490077321EE740F254518A4205D89A0C1E
:1035900002F17D0149007C3214E7FE217E2211E711
:1035A0007B6884E7E808431C5B00F8E5048CFF1F98
:1035B000704700BF704700BF38B5074C0023054671
:1035C00008462360FEF766F8431C00D038BD236828
:1035D000002BFBD02B6038BD4893FF1FFFFFFFFF80
:1035E000FFFFFFFFFFFFFFFFFFFFFFFFFFFFFFFFEB
:1035F000FFFFFFFFFFFFFFFFFFFFFFFFFFFFFFFFDB
:1036000090F800F06DE9024520F007016FF0000C22
:1036100010F0070491F820F040F049804FF00004CA
:103620006FF00700D1E9002391F840F000F10800A5
:1036300082FA4CF2A4FA8CF283FA4CF3A2FA8CF3DD
:103640004BBBD1E9022382FA4CF200F10800A4FA44
:103650008CF283FA4CF3A2FA8CF3E3B9D1E9042398
:1036600082FA4CF200F10800A4FA8CF283FA4CF3CF
:10367000A2FA8CF37BB9D1E9062301F1200182FA89
:103680004CF200F10800A4FA8CF283FA4CF3A2FA8F
:103690008CF3002BC6D0002A04BF04301A4612BA9D
:1036A000B2FA82F2FDE8024500EBD2007047D1E9A0
:1036B000002304F00305C4F100004FEAC50514F02F
:1036C000040F91F840F00CFA05F562EA05021CBF00
:1036D00063EA050362464FF00004A9E7024B13B109
:1036E000024800F005B8704700000000FD360000F9
:1036F000002301461A46184600F04AB938B5074D6E
:10370000074C2C1BA41005D0013C55F8043D9847EC
:10371000002CF9D1BDE8384000F0F8BA00000000F4
:1037200000000000F8B5234F0C460646FFF740FFA7
:10373000BB685D6825F00305291B01F6EF7121F4D4
:103740007F6121F00F01A1F58054B4F5805F07DBA4
:1037500000213046FFF730FFBB682B44984204D06D
:103760003046FFF727FF0020F8BD61423046FFF7E3
:1037700023FF01300DD0104BBA6819682D1B45F09E
:1037800001053046091B55601960FFF713FF012042
:10379000F8BD00213046FFF70FFFBA68831A0F2BE0
:1037A000DEDD064C0449246843F00103001B53602E
:1037B0000860D5E7048CFF1F0C93FF1F1090FF1FBC
:1037C000002945D02DE9F0410D468046FFF7F0FE77
:1037D00055F8047C6A4927F00103A5F10804E218B2
:1037E0008E685068B24220F0030062D0FE0750603D
:1037F0000BD455F8087CE41B01F1080EA56875454B
:103800003B446FD0E768EF60BD6015186D68ED0749
:1038100042D543F001026260E350B3F5007F18D255
:10382000DB085A1C4D6851F83270A76001209B10CC
:1038300000FA03F301EBC2001D430838E0604D605D
:1038400041F83240FC604046BDE8F041FFF7B2BEAF
:1038500070475A0A042A53D89A0902F139077F009F
:1038600002F1380501EB870051F827204449083858
:1038700090424DD0516821F003018B4202D29268F0
:103880009042F7D1D068E060A2608460D460404686
:10389000BDE8F041FFF78EBE95683A4FBD42034444
:1038A0003FD0D068E86043F0010285606260E35079
:1038B000B3E7FF07034407D455F8082CA41A1344B0
:1038C000A068E268C26090602F4A126843F001006D
:1038D000934260608C60B6D32C4B40461968FFF76A
:1038E00021FFB0E711184968C90744D49168D2682C
:1038F000CA60034443F0010091606060E350A2E7B6
:10390000142A17D802F15C077F0002F15B05A9E7D2
:10391000AA104B68012505FA02F213434B600246D8
:10392000B1E743F001024C610C61E560A5606260A3
:10393000E35088E7542A06D81A0B02F16F077F007C
:1039400002F16E058EE7B2F5AA7F06D8DA0B02F116
:1039500078077F0002F1770584E740F254508242F5
:1039600006D89A0C02F17D077F0002F17C0579E709
:10397000FE277E2576E743F001026260E35062E7AE
:10398000048CFF1F0C8CFF1F0C90FF1F0893FF1F60
:103990002DE9F047254C2568D5F84841064688466C
:1039A00092469946C4B360681F2817DC431C76B161
:1039B00004EB80050122C5F888A0D4F88811824064
:1039C0001143022EC4F88811C5F808911ED00230A8
:1039D000636044F820800020BDE8F087144B03B3F7
:1039E0004FF4C870FFF724FB0446D0B1D5F8483136
:1039F000002780E88800C5F8484138460123C4F80C
:103A00008871C4F88C71002EE1D0D1E7D4F88C1104
:103A10000A43C4F88C21DAE705F5A674C5F84841D5
:103A2000C1E74FF0FF30BDE8F08700BFE43C000085
:103A3000313000004008FE4340A004404408FE43EB
:103A400044A004400018FE4300C004403000FE4380
:103A5000309004403400FE43349004401C18FE4370
:103A60001CC004401018FE4310C004400818FE4358
:103A700008C004400C18FE430CC004400C10FE4368
:103A80000CB004401010FE4310B004401810FE4368
:103A900018B004401C10FE431CB004401410FE4338
:103AA00014B004400418FE4304C004400010FE4358
:103AB00000B004400008FE4300A004400408FE4398
:103AC00004A004400C08FE430CA004400808FE4378
:103AD00008A004401418FE4314C004401818FE4304
:103AE00018C004400410FE4304B004400810FE4314
:103AF00008B004401400FE43149004404C08FE43F8
:103B00004CA004400420FE4304D004402410FE4393
:103B100024B004402010FE4320B004402810FE438F
:103B200028B004402C10FE432CB004400020FE437B
:103B300000D004404808FE4348A004401000FE4363
:103B4000109004400D0AFFFF00000000000000007C
:103B5000AD140000A114000099140000911400009D
:103B60008914000081140000791400000015191553
:103B7000000100003087FF1F12000000000200005B
:103B80005C87FF1F4300000000030000B887FF1F91
:103B900000000000010309044487FF1F000000002B
:103BA00002030904A087FF1F0000000003030904AB
:103BB000BC87FF1F000000000000000000000000A4
:103BC000000000000000000000000000452C000084
:103BD000692C0000252D00001D2D0000152D000072
:103BE0000D2D0000D52C0000ED2C0000CD2C000088
:103BF000C12C0000B52C0000A92C0000992C00005D
:103C0000892C0000812C0000792C0000092C000078
:103C1000152C0000212C00002D2C0000512C000040
:103C2000392C00000000000000000000892D000079
:103C3000AD2D0000692E0000612E0000592E0000FD
:103C4000512E0000192E0000312E0000112E000010
:103C5000052E0000F92D0000ED2D0000DD2D0000E7
:103C6000CD2D0000C52D0000BD2D00004D2D000004
:103C7000592D0000652D0000712D0000952D0000CC
:103C80007D2D00000000000000000000CD2E00008F
:103C9000F12E0000AD2F0000A52F00009D2F000089
:103CA000952F00005D2F0000752F0000552F00009C
:103CB000492F00003D2F0000312F0000212F000070
:103CC000112F0000092F0000012F0000912E00008D
:103CD0009D2E0000A92E0000B52E0000D92E000058
:103CE000C12E0000D887FF1FF8B500BFF8BC08BC84
:103CF0009E467047DD36000035040000BD1400000C
:0C3D0000312D0000752E0000B92F0000CE
:043D0C00F8B500BF47
:103D1000FFFFFFFF0A0400004C93FF1F01090A0880
:103D20001201010102000040C016830400020102DA
:103D30000301000018035400650065006E00730065
:103D400079006400750069006E006F00090243008D
:103D5000020100C032090400000102020100052432
:103D600000100105240101010424020605240600B7
:103D7000010705820310004009040100020A000047
:103D80000007050302400000070584024000000010
:103D900016035500530042002000530065007200D6
:103DA000690061006C000000040309040C030000BA
:103DB0000000000000000000000000000000000003
:103DC000000000000000000000000000C48AFF1F87
:103DD0002C8BFF1F948BFF1F0000000000000000D1
:103DE00000000000000000000000000000000000D3
:103DF00000000000000000000000000000000000C3
:103E000000000000000000000000000000000000B2
:103E100000000000000000000000000000000000A2
:103E20000000000000000000000000000000000092
:103E30000000000000000000000000000000000082
:103E40000000000000000000000000000000000072
:103E50000000000000000000000000000000000062
:103E60000000000000000000000000000000000052
:103E700001000000000000000E33CDAB34126DE6EF
:103E8000ECDE05000B000000000000000000000058
:103E90000000000000000000000000000000000022
:103EA0000000000000000000000000000000000012
:103EB0000000000000000000000000000000000002
:103EC00000000000000000000000000000000000F2
:1041F000D887FF1F0000000000000000048CFF1F94
:10420000048CFF1F0C8CFF1F0C8CFF1F148CFF1FD6
:10421000148CFF1F1C8CFF1F1C8CFF1F248CFF1F86
:10422000248CFF1F2C8CFF1F2C8CFF1F348CFF1F36
:10423000348CFF1F3C8CFF1F3C8CFF1F448CFF1FE6
:10424000448CFF1F4C8CFF1F4C8CFF1F548CFF1F96
:10425000548CFF1F5C8CFF1F5C8CFF1F648CFF1F46
:10426000648CFF1F6C8CFF1F6C8CFF1F748CFF1FF6
:10427000748CFF1F7C8CFF1F7C8CFF1F848CFF1FA6
:10428000848CFF1F8C8CFF1F8C8CFF1F948CFF1F56
:10429000948CFF1F9C8CFF1F9C8CFF1FA48CFF1F06
:1042A000A48CFF1FAC8CFF1FAC8CFF1FB48CFF1FB6
:1042B000B48CFF1FBC8CFF1FBC8CFF1FC48CFF1F66
:1042C000C48CFF1FCC8CFF1FCC8CFF1FD48CFF1F16
:1042D000D48CFF1FDC8CFF1FDC8CFF1FE48CFF1FC6
:1042E000E48CFF1FEC8CFF1FEC8CFF1FF48CFF1F76
:1042F000F48CFF1FFC8CFF1FFC8CFF1F048DFF1F25
:10430000048DFF1F0C8DFF1F0C8DFF1F148DFF1FD1
:10431000148DFF1F1C8DFF1F1C8DFF1F248DFF1F81
:10432000248DFF1F2C8DFF1F2C8DFF1F348DFF1F31
:10433000348DFF1F3C8DFF1F3C8DFF1F448DFF1FE1
:10434000448DFF1F4C8DFF1F4C8DFF1F548DFF1F91
:10435000548DFF1F5C8DFF1F5C8DFF1F648DFF1F41
:10436000648DFF1F6C8DFF1F6C8DFF1F748DFF1FF1
:10437000748DFF1F7C8DFF1F7C8DFF1F848DFF1FA1
:10438000848DFF1F8C8DFF1F8C8DFF1F948DFF1F51
:10439000948DFF1F9C8DFF1F9C8DFF1FA48DFF1F01
:1043A000A48DFF1FAC8DFF1FAC8DFF1FB48DFF1FB1
:1043B000B48DFF1FBC8DFF1FBC8DFF1FC48DFF1F61
:1043C000C48DFF1FCC8DFF1FCC8DFF1FD48DFF1F11
:1043D000D48DFF1FDC8DFF1FDC8DFF1FE48DFF1FC1
:1043E000E48DFF1FEC8DFF1FEC8DFF1FF48DFF1F71
:1043F000F48DFF1FFC8DFF1FFC8DFF1F048EFF1F20
:10440000048EFF1F0C8EFF1F0C8EFF1F148EFF1FCC
:10441000148EFF1F1C8EFF1F1C8EFF1F248EFF1F7C
:10442000248EFF1F2C8EFF1F2C8EFF1F348EFF1F2C
:10443000348EFF1F3C8EFF1F3C8EFF1F448EFF1FDC
:10444000448EFF1F4C8EFF1F4C8EFF1F548EFF1F8C
:10445000548EFF1F5C8EFF1F5C8EFF1F648EFF1F3C
:10446000648EFF1F6C8EFF1F6C8EFF1F748EFF1FEC
:10447000748EFF1F7C8EFF1F7C8EFF1F848EFF1F9C
:10448000848EFF1F8C8EFF1F8C8EFF1F948EFF1F4C
:10449000948EFF1F9C8EFF1F9C8EFF1FA48EFF1FFC
:1044A000A48EFF1FAC8EFF1FAC8EFF1FB48EFF1FAC
:1044B000B48EFF1FBC8EFF1FBC8EFF1FC48EFF1F5C
:1044C000C48EFF1FCC8EFF1FCC8EFF1FD48EFF1F0C
:1044D000D48EFF1FDC8EFF1FDC8EFF1FE48EFF1FBC
:1044E000E48EFF1FEC8EFF1FEC8EFF1FF48EFF1F6C
:1044F000F48EFF1FFC8EFF1FFC8EFF1F048FFF1F1B
:10450000048FFF1F0C8FFF1F0C8FFF1F148FFF1FC7
:10451000148FFF1F1C8FFF1F1C8FFF1F248FFF1F77
:10452000248FFF1F2C8FFF1F2C8FFF1F348FFF1F27
:10453000348FFF1F3C8FFF1F3C8FFF1F448FFF1FD7
:10454000448FFF1F4C8FFF1F4C8FFF1F548FFF1F87
:10455000548FFF1F5C8FFF1F5C8FFF1F648FFF1F37
:10456000648FFF1F6C8FFF1F6C8FFF1F748FFF1FE7
:10457000748FFF1F7C8FFF1F7C8FFF1F848FFF1F97
:10458000848FFF1F8C8FFF1F8C8FFF1F948FFF1F47
:10459000948FFF1F9C8FFF1F9C8FFF1FA48FFF1FF7
:1045A000A48FFF1FAC8FFF1FAC8FFF1FB48FFF1FA7
:1045B000B48FFF1FBC8FFF1FBC8FFF1FC48FFF1F57
:1045C000C48FFF1FCC8FFF1FCC8FFF1FD48FFF1F07
:1045D000D48FFF1FDC8FFF1FDC8FFF1FE48FFF1FB7
:1045E000E48FFF1FEC8FFF1FEC8FFF1FF48FFF1F67
:1045F000F48FFF1FFC8FFF1FFC8FFF1F00000200C6
:04460000FFFFFFFFBA
:00000001FF
